{
  "_format": "hh-sol-artifact-1",
  "contractName": "TokenWithdrawerFactory",
  "sourceName": "contracts/TokenWithdrawer.sol",
  "abi": [
    {
      "inputs": [],
      "name": "Create2EmptyBytecode",
      "type": "error"
    },
    {
      "inputs": [],
      "name": "FailedDeployment",
      "type": "error"
    },
    {
      "inputs": [
        {
          "internalType": "uint256",
          "name": "balance",
          "type": "uint256"
        },
        {
          "internalType": "uint256",
          "name": "needed",
          "type": "uint256"
        }
      ],
      "name": "InsufficientBalance",
      "type": "error"
    },
    {
      "anonymous": false,
      "inputs": [
        {
          "indexed": false,
          "internalType": "address",
          "name": "addr",
          "type": "address"
        },
        {
          "indexed": false,
          "internalType": "bytes32",
          "name": "salt",
          "type": "bytes32"
        }
      ],
      "name": "Deployed",
      "type": "event"
    },
    {
      "inputs": [
        {
          "internalType": "address",
          "name": "_owner",
          "type": "address"
        },
        {
          "internalType": "bytes32",
          "name": "salt",
          "type": "bytes32"
        }
      ],
      "name": "computeAddress",
      "outputs": [
        {
          "internalType": "address",
          "name": "addr",
          "type": "address"
        }
      ],
      "stateMutability": "view",
      "type": "function"
    },
    {
      "inputs": [
        {
          "internalType": "address",
          "name": "_owner",
          "type": "address"
        },
        {
          "internalType": "bytes32",
          "name": "salt",
          "type": "bytes32"
        }
      ],
      "name": "deploy",
      "outputs": [
        {
          "internalType": "address",
          "name": "addr",
          "type": "address"
        }
      ],
      "stateMutability": "nonpayable",
      "type": "function"
    }
  ],
  "bytecode": "0x6080604052348015600e575f5ffd5b50610b9e8061001c5f395ff3fe608060405234801561000f575f5ffd5b5060043610610034575f3560e01c806332c02a141461003857806341b5558314610068575b5f5ffd5b610052600480360381019061004d91906103d0565b610098565b60405161005f919061041d565b60405180910390f35b610082600480360381019061007d91906103d0565b61014d565b60405161008f919061041d565b60405180910390f35b5f5f604051806020016100aa90610332565b6020820181038252601f19601f82011660405250846040516020016100cf919061041d565b6040516020818303038152906040526040516020016100ef929190610488565b604051602081830303815290604052905061010b5f84836101cf565b91507f94bfd9af14ef450884c8a7ddb5734e2e1e14e70a1c84f0801cc5a29e34d26428828460405161013e9291906104ba565b60405180910390a15092915050565b5f5f6040518060200161015f90610332565b6020820181038252601f19601f8201166040525084604051602001610184919061041d565b6040516020818303038152906040526040516020016101a4929190610488565b60405160208183030381529060405290506101c68382805190602001206102de565b91505092915050565b5f834710156102175747846040517fcf47918100000000000000000000000000000000000000000000000000000000815260040161020e9291906104f9565b60405180910390fd5b5f825103610251576040517f4ca249dc00000000000000000000000000000000000000000000000000000000815260040160405180910390fd5b8282516020840186f590503d151981151615610272576040513d5f823e3d81fd5b5f73ffffffffffffffffffffffffffffffffffffffff168173ffffffffffffffffffffffffffffffffffffffff16036102d7576040517fb06ebf3d00000000000000000000000000000000000000000000000000000000815260040160405180910390fd5b9392505050565b5f6102ea8383306102f2565b905092915050565b5f604051836040820152846020820152828152600b810160ff815373ffffffffffffffffffffffffffffffffffffffff6055822016925050509392505050565b6106488061052183390190565b5f5ffd5b5f73ffffffffffffffffffffffffffffffffffffffff82169050919050565b5f61036c82610343565b9050919050565b61037c81610362565b8114610386575f5ffd5b50565b5f8135905061039781610373565b92915050565b5f819050919050565b6103af8161039d565b81146103b9575f5ffd5b50565b5f813590506103ca816103a6565b92915050565b5f5f604083850312156103e6576103e561033f565b5b5f6103f385828601610389565b9250506020610404858286016103bc565b9150509250929050565b61041781610362565b82525050565b5f6020820190506104305f83018461040e565b92915050565b5f81519050919050565b5f81905092915050565b8281835e5f83830152505050565b5f61046282610436565b61046c8185610440565b935061047c81856020860161044a565b80840191505092915050565b5f6104938285610458565b915061049f8284610458565b91508190509392505050565b6104b48161039d565b82525050565b5f6040820190506104cd5f83018561040e565b6104da60208301846104ab565b9392505050565b5f819050919050565b6104f3816104e1565b82525050565b5f60408201905061050c5f8301856104ea565b61051960208301846104ea565b939250505056fe608060405234801561000f575f5ffd5b50604051610648380380610648833981810160405281019061003191906100d4565b805f5f6101000a81548173ffffffffffffffffffffffffffffffffffffffff021916908373ffffffffffffffffffffffffffffffffffffffff160217905550506100ff565b5f5ffd5b5f73ffffffffffffffffffffffffffffffffffffffff82169050919050565b5f6100a38261007a565b9050919050565b6100b381610099565b81146100bd575f5ffd5b50565b5f815190506100ce816100aa565b92915050565b5f602082840312156100e9576100e8610076565b5b5f6100f6848285016100c0565b91505092915050565b61053c8061010c5f395ff3fe608060405234801561000f575f5ffd5b5060043610610034575f3560e01c80638da5cb5b14610038578063f676115114610056575b5f5ffd5b610040610072565b60405161004d91906102c0565b60405180910390f35b610070600480360381019061006b9190610307565b610096565b005b5f5f9054906101000a900473ffffffffffffffffffffffffffffffffffffffff1681565b5f5f9054906101000a900473ffffffffffffffffffffffffffffffffffffffff1673ffffffffffffffffffffffffffffffffffffffff163373ffffffffffffffffffffffffffffffffffffffff1614610124576040517f08c379a000000000000000000000000000000000000000000000000000000000815260040161011b9061038c565b60405180910390fd5b5f8173ffffffffffffffffffffffffffffffffffffffff166370a08231306040518263ffffffff1660e01b815260040161015e91906102c0565b602060405180830381865afa158015610179573d5f5f3e3d5ffd5b505050506040513d601f19601f8201168201806040525081019061019d91906103dd565b90505f81116101e1576040517f08c379a00000000000000000000000000000000000000000000000000000000081526004016101d890610452565b60405180910390fd5b8173ffffffffffffffffffffffffffffffffffffffff1663a9059cbb5f5f9054906101000a900473ffffffffffffffffffffffffffffffffffffffff16836040518363ffffffff1660e01b815260040161023c92919061047f565b6020604051808303815f875af1158015610258573d5f5f3e3d5ffd5b505050506040513d601f19601f8201168201806040525081019061027c91906104db565b505050565b5f73ffffffffffffffffffffffffffffffffffffffff82169050919050565b5f6102aa82610281565b9050919050565b6102ba816102a0565b82525050565b5f6020820190506102d35f8301846102b1565b92915050565b5f5ffd5b6102e6816102a0565b81146102f0575f5ffd5b50565b5f81359050610301816102dd565b92915050565b5f6020828403121561031c5761031b6102d9565b5b5f610329848285016102f3565b91505092915050565b5f82825260208201905092915050565b7f4f6e6c79206f776e65722063616e2077697468647261770000000000000000005f82015250565b5f610376601783610332565b915061038182610342565b602082019050919050565b5f6020820190508181035f8301526103a38161036a565b9050919050565b5f819050919050565b6103bc816103aa565b81146103c6575f5ffd5b50565b5f815190506103d7816103b3565b92915050565b5f602082840312156103f2576103f16102d9565b5b5f6103ff848285016103c9565b91505092915050565b7f4e6f2062616c616e636520746f207769746864726177000000000000000000005f82015250565b5f61043c601683610332565b915061044782610408565b602082019050919050565b5f6020820190508181035f83015261046981610430565b9050919050565b610479816103aa565b82525050565b5f6040820190506104925f8301856102b1565b61049f6020830184610470565b9392505050565b5f8115159050919050565b6104ba816104a6565b81146104c4575f5ffd5b50565b5f815190506104d5816104b1565b92915050565b5f602082840312156104f0576104ef6102d9565b5b5f6104fd848285016104c7565b9150509291505056fea264697066735822122063aaa46a1e52d3793142c5fb2a38bd98e7c96f41441e48ee0670ac0d5122ee5b64736f6c634300081c0033a26469706673582212200a12d704d786f389e46dc44d9f2277cfdad35f38aee4353f680758d57d3789bd64736f6c634300081c0033",
  "linkReferences": {},
  "deployedLinkReferences": {}
}